:03000000020006F5
:08005F00E4F508F509020003B5
:0300030002006791
:20006700D287C2B3D2B4750DFF750EFF7C017D008C0A750B02750C03050DE4B50D02050EBF
:20008700E50D450E7006C2B3D2B480247401B50D0614B50E0280028006D2B3C2B4801174E1
:2000A70002B50D06E4B50E0280028004C2B3C2B4E50D240AF9E7FB70057590C08046BB011E
:2000C700057590F9803EBB02057590A48036BB03057590B0802EBB04057590998026BB0549
:2000E70005759092801EBB06057590828016BB07057590F8800EBB08057590808006BB09F3
:20010700037590907403B50D06E4B50E0280028006750DFF750EFF8C028D038A068B071AF3
:0E012700BAFF011BEE4F70F37C03FD02007F58
:06003500E478FFF6D8FD9F
:200013007900E94400601B7A00900139780175A000E493F2A308B8000205A0D9F4DAF27559
:02003300A0FF2C
:20003B007800E84400600A790175A000E4F309D8FC7800E84400600C7900900001E4F0A3C3
:04005B00D8FCD9FAFA
:0D00060075810E120135E5826003020003D2
:0401350075820022AD
:00000001FF
